:100000000A128A11F72FFF1B0D2883137F188317FD
:100010000008840A0319FF0A080000308A00040857
:10002000840A82070034203453343134203420349D
:100030002034533432342034203420345334333495
:040040002034003434
:1008D8000A128A1188240A128A1183160313111422
:1008E80008000A128A1188240A128A11831603132F
:1008F800111508000A128A1188240A128A11700830
:1009080083120313930008008316031314198D2C04
:100918008E2C882C11081F39031D932C942C882C9D
:10092800080000300A128A11A2240A128A11013022
:100938000A128A11A2240A128A110800F100710809
:10094800831203138600091089100915C730F000B7
:10095800AD2CF00BAC2CB02CB12C83120313091165
:100968000800F10071088312031386000914891026
:100978000915C730F000C02CF00BBF2CC32CC42CB9
:1009880083120313091108008316031788018901CC
:1009980083160313850186018801890183120313D5
:1009A80085018601880189010030A3000130A20079
:1009B8008630A100A030A0000A128A11D8250A1298
:1009C8008A110800FF2C7308FF00720884000A12BD
:1009D8008A1103200A128A110A128A11B5240A12EE
:1009E8008A110130F2070318F30A0030F3070D30BB
:1009F800F400F40BFD2C730883120313FF00720834
:100A080084000A128A1103200A128A11003A031D6F
:100A18000E2D0F2DE72C0800F4007403031D152D6F
:100A2800162D262D72087F3EF3007308F500750811
:100A3800F3007308F60076080A128A11A2240A1233
:100A48008A113B2D02307406031D2B2D2C2D3B2DB6
:100A58007208BF3EF3007308F5007508F3007308C9
:100A6800F60076080A128A11A2240A128A110800CE
:100A78000A128A1188240A128A11831603139115FF
:100A88000A128A1188240A128A118312031313087E
:100A9800F200F3017208F4007308F5000A128A11D3
:100AA80088240A128A1170037104031D5C2D5D2DC0
:100AB800612D831603139112642D83160313911667
:100AC80011167508F1007408F0000800F000802D78
:100AD8003030A02D3130A02D3230A02D3330A02D54
:100AE8003430A02D3530A02D3630A02D3730A02D34
:100AF8003830A02D3930A02D7008003A03196C2D1C
:100B0800013A03196E2D033A0319702D013A03199E
:100B1800722D073A0319742D013A0319762D033AF9
:100B28000319782D013A03197A2D0F3A03197C2DF0
:100B3800013A03197E2D6C2D080030300A128A11F3
:100B4800A2240A128A110C300A128A11A2240A124B
:100B58008A1101300A128A11A2240A128A11063057
:100B68000A128A11A2240A128A1180300A128A11E2
:100B7800A2240A128A1138300A128A11A2240A12EF
:100B88008A110C300A128A11A2240A128A1106301C
:100B98000A128A11A2240A128A1180300A128A11B2
:100BA800A2240A128A110800283083120313940021
:100BB800831603139101831203132008A40021084C
:100BC800A5002208A6002308A70002300310A40DE0
:100BD800A50DA60DA70DFF3E031DEA2D2708F3005E
:100BE8002608F2002508F1002408F0000030F7007C
:100BF8007A30F6001230F5000030F4000A128A113B
:100C080010260A128A117008FF3E831603139300F8
:100C180094018715071608000030FC000030FB001F
:100C28000030FA000030F90073087204710470048F
:100C380003191F2E202E6D2EFD01FD0A302E0130C6
:100C4800F8000310F00DF10DF20DF30DF80B252E41
:100C58000130F8007808FD07F31F332E342E232EB9
:100C68000130F8000310F90DFA0DFB0DFC0DF80B1F
:100C7800362E73087702031D4B2E72087602031D69
:100C88004B2E71087502031D4B2E70087402031C4D
:100C98004E2E4F2E5E2E7008F4027108031C710F41
:100CA800F5027208031C720FF6027308031C730F17
:100CB800F702791401300310F30CF20CF10CF00C6C
:100CC800FF3E031D5F2E0130FD02031D6C2E6D2EAD
:100CD800342E7C08F3007B08F2007A08F1007908CA
:100CE800F00008008312031335080A128A116A25D6
:100CF8000A128A11F100710883120313A0002E3022
:100D0800F1007108A10035080A128A116A250A1231
:100D18008A11F100710883120313A20035080A1220
:100D28008A116A250A128A11F100710883120313C5
:100D3800A3002030F1007108A40035080A128A11B6
:100D48006A250A128A11F100710883120313A5009B
:100D58002E30F1007108A60035080A128A116A259A
:100D68000A128A11F100710883120313A7003508CB
:100D78000A128A116A250A128A11F100710883126F
:100D88000313A8002030F1007108A90035080A12E1
:100D98008A116A250A128A11F10071088312031355
:100DA800AA002030F1007108AB002030F100710872
:100DB800AC002030F1007108AD002030F10071085E
:100DC800AE002030F1007108AF00203008000A1290
:100DD8008A11C8240A128A110A128A1195240A1241
:100DE8008A110A128A11A1250A128A1190300A1250
:100DF8008A11A2240A128A11033083120313B10044
:100E08009730B000B00B062FB10B062F0A128A11CB
:100E18006C240A128A115030F0000030F1000A12D6
:100E28008A117E240A128A110030F000F1000A1299
:100E38008A117E240A128A110A128A1175240A124A
:100E48008A11033083120313B2000830B1007630E0
:100E5800B000B00B2D2FB10B2D2FB20B2D2F000092
:100E68000A128A116C240A128A115130F0000030DB
:100E7800F1000A128A117E240A128A110030F00049
:100E8800F1000A128A113C250A128A11700883128D
:100E98000313B0003008B5000A128A1175240A122B
:100EA8008A11033083120313B2000830B100763080
:100EB800B000B00B5D2FB10B5D2FB20B5D2F0000A2
:100EC8000A128A116C240A128A116130F00000306B
:100ED800F1000A128A117E240A128A110030F000E9
:100EE800F1000A128A113C250A128A11700883122D
:100EF8000313B0003008B4000A128A1175240A12CC
:100F08008A11033083120313B2000830B10076301F
:100F1800B000B00B8D2FB10B8D2FB20B8D2F0000B1
:100F280083120313340888000A128A116C240A12E7
:100F38008A118130F0000030F1000A128A117E24F3
:100F48000A128A110030F000F1000A128A113C25B9
:100F58000A128A11700883120313B0003008B30014
:100F68000A128A1175240A128A1103308312031394
:100F7800B2000830B1007630B000B00BC12FB10B11
:100F8800C12FB20BC12F0000F201F20A01300A1280
:100F98008A1110250A128A110130F2008030F300FC
:100FA8000A128A11E6240A128A11F201F20A0230A0
:100FB8000A128A1110250A128A110A128A11762633
:100FC8000A128A1183120313B000B1013008F2002B
:100FD8003108F3000A128A11E6240A128A110A2F2C
:100FE8000A128A11002883120313B301B401B50150
:080FF80083010A128A11EB2E9D
:04400E00D620FF3F7A
:00000001FF
