:020000040000FA
:060000000A128A110C280F
:10000800FE00030EF0000A08F1000A128A116028A7
:100018000A128A110F2883010A128A115728F4003C
:100028003328831603130F088F3940388F000F14B5
:100038004928831603130F088F3950388F000F147F
:100048004928831603130F088F3960388F000F145F
:1000580049287030831603138F040F144928740835
:10006800F200F3017308003A03193B284928720883
:10007800013A03191528033A03191D28063A0319EA
:1000880025280C3A03192D28492808008316031738
:100098008801890104300A128A1113200A128A1170
:1000A8008B130B1308000A128A114A200A128A11AC
:1000B8005C280A128A110C2871088A00700E8300C5
:0600C800FE0E7E0E090091
:04400E00D420FF3F7C
:00000001FF
