:060000000A128A11FC2F18
:100A86000A128A115F250A128A118316031311149A
:100A960008000A128A115F250A128A1183160313A7
:100AA600111508000A128A115F250A128A117008A8
:100AB6008312031393000800831603131419642D7D
:100AC600652D5F2D11081F39031D6A2D6B2D5F2DB6
:100AD600080000300A128A1179250A128A1101309B
:100AE6000A128A1179250A128A110800F100710882
:100AF600831203138600881208138817C730F00084
:100B0600842DF00B832D872D882D831203138813D4
:100B16000800F10071088312031386008816081373
:100B26008817C730F000972DF00B962D9A2D9B2D28
:100B36008312031388130800B52D720884008317E7
:100B4600731C831300080A128A118C250A128A1153
:100B56000130F2070318F30A0030F3070D30F400F2
:100B6600F40BB32D720884008317731C83130008DB
:100B7600031DBE2DBF2DA02D080083160317880167
:100B860089010814881483160313850186018801D8
:100B960088120813881383120313850186018801BE
:100BA60008300A128A1145260A128A110030831269
:100BB6000313A3000130A2008630A100A030A000DC
:100BC6000A128A11AB260A128A118B130B1308001C
:100BD600F4007403031DF02DF12D012E72087F3EE3
:100BE600F3007308F5007508F3007308F60076083D
:100BF6000A128A1179250A128A11162E02307406F3
:100C0600031D062E072E162E7208BF3EF30073082C
:100C1600F5007508F3007308F60076080A128A11C3
:100C260079250A128A1108000A128A115F250A120A
:100C36008A118316031391150A128A115F250A1267
:100C46008A11831203131308F200F3017208F400E9
:100C56007308F5000A128A115F250A128A117003B9
:100C66007104031D372E382E3C2E83160313911262
:100C76003F2E83160313911611167508F10074089A
:100C8600F0000800F000652E831603130F088F3955
:100C960040388F000F14732E831603130F088F39F5
:100CA60050388F000F14732E831603130F088F39D5
:100CB60060388F000F14732E7030831603138F0461
:100CC6000F14732E7008013A0319472E033A0319BD
:100CD6004F2E063A0319572E0C3A03195F2E732E20
:100CE600080030300A128A1179250A128A110C304E
:100CF6000A128A1179250A128A1101300A128A11FA
:100D060079250A128A1106300A128A1179250A12E1
:100D16008A1180300A128A1179250A128A1138300E
:100D26000A128A1179250A128A110C300A128A11BE
:100D360079250A128A1106300A128A1179250A12B1
:100D46008A1180300A128A1179250A128A1108003E
:100D56002830831203139400831603139101831220
:100D660003132008A4002108A5002208A6002308D2
:100D7600A70002300310A40DA50DA60DA70DFF3E7A
:100D8600031DBD2E2708F3002608F2002508F100F2
:100D96002408F0000030F7007A30F6001230F50033
:100DA6000030F4000A128A11E3260A128A1170082A
:100DB600FF3E831603139300940187150716080058
:100DC6000030FC000030FB000030FA000030F90073
:100DD60073087204710470040319F22EF32E402F67
:100DE600FD01FD0A032F0130F8000310F00DF10D8F
:100DF600F20DF30DF80BF82E0130F8007808FD0718
:100E0600F31F062F072FF62E0130F8000310F90DF9
:100E1600FA0DFB0DFC0DF80B092F73087702031D65
:100E26001E2F72087602031D1E2F71087502031D00
:100E36001E2F70087402031C212F222F312F7008D9
:100E4600F4027108031C710FF5027208031C720F7D
:100E5600F6027308031C730FF702791401300310AE
:100E6600F30CF20CF10CF00CFF3E031D322F013097
:100E7600FD02031D3F2F402F072F7C08F3007B0840
:100E8600F2007A08F1007908F00008000A128A11C7
:100E9600C0250A128A110A128A116C250A128A11B1
:100EA6000A128A1174260A128A1190300A128A11BD
:100EB60079250A128A11033083120313A900973089
:100EC600A800A80B642FA90B642F0A128A114325C8
:100ED6000A128A115030F0000030F1000A128A110D
:100EE60055250A128A11831203130508A800A901C1
:100EF6002808F0002908F1000A128A1155250A125D
:100F06008A110A128A114C250A128A110330831299
:100F16000313AA000830A9007630A800A80B912F69
:100F2600A90B912FAA0B912F00000A128A114325B3
:100F36000A128A115130F0000030F1000A128A11AB
:100F460055250A128A110030F000F1000A128A11A2
:100F560017260A128A1170088312031389000A12CF
:100F66008A114C250A128A11033083120313AA0030
:100F76000830A9007630A800A80BBF2FA90BBF2FF9
:100F8600AA0BBF2F0000013083120313A800280804
:100F96008507F201F20A01300A128A11EB250A12BC
:100FA6008A11831203130508A800A9012808F20074
:100FB6002908F3000A128A119F250A128A11F201E2
:100FC600F20A02300A128A11EB250A128A118312DA
:100FD60003130808A800A9012808F2002908F3004D
:100FE6000A128A119F250A128A11682F0A128A117B
:0A0FF600002883010A128A11492F16
:04400E00D420FF3F7C
:00000001FF
