:060000000A128A110C280F
:10000800FE00030EF0000A08F1000A128A117A2A8B
:100018000A128A110F28FB0183010A128A11142877
:100028000A128A1100220A128A110A128A1144221B
:100038000A128A110A128A114E210A128A11903064
:100048000A128A1131220A128A1103308312031309
:10005800AE009730AD00AD0B2F28AE0B2F280A123B
:100068008A1171220A128A115030F2000030F3000E
:100078000A128A115E220A128A110030F200F30075
:100088000A128A115E220A128A110A128A11682239
:100098000A128A111A3083120313AE00F730AD002A
:1000A800AD0B5428AE0B542859280A128A11712214
:1000B8000A128A115130F2000030F3000A128A1134
:1000C8005E220A128A110030F200F3000A128A1125
:1000D80085210A128A1172088312031385000A12F5
:1000E8008A1168220A128A111A3083120313AE0089
:1000F800F730AD00AD0B7E28AE0B7E288328F401C7
:10010800F40A01300A128A11B3210A128A11003046
:10011800F4000030F5000A128A11DF210A128A1150
:10012800F401F40A02300A128A11B3210A128A1160
:10013800831203130508AD00AE012D08F4002E0844
:10014800F5000A128A11DF210A128A1133280A12CD
:100158008A110C28003083120313A3000030A20078
:100168000030A1000030A000750874047304720404
:100178000319BF28C0280D29A401A40AD0280130DA
:10018800FA000310F20DF30DF40DF50DFA0BC52866
:100198000130FA007A08A407F51FD328D428C32809
:1001A8000130FA000310A00DA10DA20DA30DFA0B4A
:1001B800D62875087902031DEB2874087802031DF8
:1001C800EB2873087702031DEB2872087602031CDC
:1001D800EE28EF28FE287208F6027308031C730F36
:1001E800F7027408031C740FF8027508031C750FD6
:1001F800F902201401300310F50CF40CF30CF20C86
:10020800FF3E031DFF280130A402031D0C290D2900
:10021800D4282308F5002208F4002108F300200858
:10022800F200080028308312031394008316031386
:100238009101831203132508A9002608AA0027089C
:10024800AB002808AC0002300310A90DAA0DAB0DB5
:10025800AC0DFF3E031D28292C08F5002B08F400DF
:100268002A08F3002908F2000030F9007A30F80073
:100278001230F7000030F6000A128A11AE200A1276
:100288008A117208FF3E83160313930094018715A1
:100298000716080030300A128A1131220A128A1110
:1002A8000C300A128A1131220A128A1101300A12FC
:1002B8008A1131220A128A1106300A128A11312251
:1002C8000A128A1180300A128A1131220A128A11FE
:1002D80038300A128A1131220A128A110C300A1295
:1002E8008A1131220A128A1106300A128A11312221
:1002F8000A128A1180300A128A1131220A128A11CE
:1003080008000A128A1151220A128A11831603134D
:1003180091150A128A1151220A128A1183120313A3
:100328001308F400F5017408F6007508F7000A12BE
:100338008A1151220A128A1172037304031DA52916
:10034800A629AA29831603139112AD29831603132C
:10035800911611167708F3007608F2000800F600E7
:100368007603031DB829B929C92974087F3EF50009
:100378007508F7007708F5007508F80078080A127C
:100388008A1131220A128A11DE2902307606031DEB
:10039800CE29CF29DE297408BF3EF5007508F7007D
:1003A8007708F5007508F80078080A128A113122D2
:1003B8000A128A110800F529740884008317751C2D
:1003C800831300080A128A111E220A128A110130A8
:1003D800F4070318F50A0030F5070D30F600F60BA0
:1003E800F329740884008317751C83130008031D00
:1003F800FE29FF29E02908008316031788018901CF
:10040800831603138501860188018901831203136A
:1004180085018601880189010030A8000130A70004
:100428008630A600A030A5000A128A1116210A12E9
:100438008A110800F30073088312031386008816D4
:1004480008138817C730F200292AF20B282A2C2A09
:100458002D2A8312031388130800F30073088312EC
:1004680003138600881208138817C730F2003C2A45
:10047800F20B3B2A3F2A402A8312031388130800F1
:1004880000300A128A1131220A128A1101300A1226
:100498008A1131220A128A110800831603131419CB
:1004A800562A572A512A11081F39031D5C2A5D2A2A
:1004B800512A08000A128A1151220A128A11720856
:1004C80083120313930008000A128A1151220A1298
:1004D8008A1183160313111508000A128A11512272
:1004E8000A128A11831603131114080071088A006E
:0A04F800700E8300FE0E7E0E090058
:04400E00D620FF3F7A
:00000001FF
