:060000000A128A110C280F
:10000800FE00030EF0000A08F1000A128A11B52A50
:100018000A128A110F2883010A128A1113280A1258
:100028008A113B220A128A110A128A117F220A12A5
:100038008A110A128A1161210A128A1190300A1251
:100048008A116C220A128A11033083120313AE003C
:100058009730AD00AD0B2E28AE0B2E280A128A1150
:10006800AC220A128A115030F2000030F3000A1252
:100078008A1199220A128A11831203130508AD0006
:10008800AE012D08F2002E08F3000A128A119922F7
:100098000A128A110A128A11A3220A128A1103303B
:1000A80083120313AF000830AE007630AD00AD0BFD
:1000B8005B28AE0B5B28AF0B5B2800000A128A1185
:1000C800AC220A128A115130F2000030F3000A12F1
:1000D8008A1199220A128A110030F200F3000A12DA
:1000E8008A1198210A128A1172088312031389004F
:1000F8000A128A11A3220A128A11033083120313E7
:10010800AF000830AE007630AD00AD0B8928AE0BDD
:100118008928AF0B89280000013083120313AD0032
:100128002D088507F401F40A01300A128A11C62144
:100138000A128A110130F4008030F5000A128A117F
:10014800F2210A128A11F401F40A02300A128A1101
:10015800C6210A128A11831203130508AD00AE01E5
:100168002D08F4002E08F5000A128A11F2210A124D
:100178008A1132280A128A110C28003083120313BC
:10018800A3000030A2000030A1000030A0007508D4
:100198007404730472040319D228D3282029A401F3
:1001A800A40AE3280130FA000310F20DF30DF40D50
:1001B800F50DFA0BD8280130FA007A08A407F51FC4
:1001C800E628E728D6280130FA000310A00DA10D73
:1001D800A20DA30DFA0BE92875087902031DFE2864
:1001E80074087802031DFE2873087702031DFE2891
:1001F80072087602031C0129022911297208F602E5
:100208007308031C730FF7027408031C740FF802B9
:100218007508031C750FF902201401300310F50C42
:10022800F40CF30CF20CFF3E031D12290130A4025A
:10023800031D1F292029E7282308F5002208F400B8
:100248002108F3002008F200080028308312031365
:100258009400831603139101831203132508A90040
:100268002608AA002708AB002808AC0002300310B3
:10027800A90DAA0DAB0DAC0DFF3E031D3B292C08A3
:10028800F5002B08F4002A08F3002908F2000030D2
:10029800F9007A30F8001230F7000030F6000A1240
:1002A8008A11C1200A128A117208FF3E83160313AD
:1002B8009300940187150716080030300A128A1136
:1002C8006C220A128A110C300A128A116C220A1244
:1002D8008A1101300A128A116C220A128A11063018
:1002E8000A128A116C220A128A1180300A128A11A3
:1002F8006C220A128A1138300A128A116C220A12E8
:100308008A110C300A128A116C220A128A110630DC
:100318000A128A116C220A128A1180300A128A1172
:100328006C220A128A1108000A128A118C220A12F7
:100338008A118316031391150A128A118C220A1244
:100348008A11831203131308F400F5017408F600E8
:100358007508F7000A128A118C220A128A11720390
:100368007304031DB829B929BD29831603139112F3
:10037800C02983160313911611167708F30076081F
:10038800F2000800F6007603031DCB29CC29DC29EE
:1003980074087F3EF5007508F7007708F5007508C2
:1003A800F80078080A128A116C220A128A11F129B7
:1003B80002307606031DE129E229F1297408BF3EBF
:1003C800F5007508F7007708F5007508F800780853
:1003D8000A128A116C220A128A1108000B2A75085F
:1003E800FF00740884000A128A111C220A128A115A
:1003F8000A128A1159220A128A110130F4070318C5
:10040800F50A0030F5070D30F600F60B092A7508D5
:1004180083120313FF00740884000A128A111C2235
:100428000A128A11003A031D1A2A1B2AF329080006
:10043800FF1B262A83137F1883170008840A0319D1
:10044800FF0A080002308A000408840A8207003480
:10045800203453343134203420342034533432346B
:100468002034203420345334333420340034831679
:100478000317880189018316031385018601880102
:1004880089018312031385018601880189010030DF
:10049800A8000130A7008630A600A030A5000A12E7
:1004A8008A1129210A128A110800F300730883129D
:1004B80003138600881608138817C730F200642AC9
:1004C800F20B632A672A682A831203138813080029
:1004D800F300730883120313860088120813881721
:1004E800C730F200772AF20B762A7A2A7B2A8312FF
:1004F80003138813080000300A128A116C220A12AA
:100508008A1101300A128A116C220A128A11080013
:10051800831603131419912A922A8C2A11081F3959
:10052800031D972A982A8C2A08000A128A118C22FD
:100538000A128A11720883120313930008000A1220
:100548008A118C220A128A118316031311150800C6
:100558000A128A118C220A128A11831603131114A3
:10056800080071088A00700E8300FE0E7E0E0900D6
:04400E00D620FF3F7A
:00000001FF
