:100000000A128A11F32FFF1B0D2883137F18831701
:100010000008840A0319FF0A080000308A00040857
:10002000840A8207003443346F3475346E34743478
:10003000203450346F3474342034203454346534D4
:060040006D347034003441
:10033C0064008001840A04060319003404069F2912
:10034C000A128A11C2210A128A118316031311147C
:10035C0008000A128A11C2210A128A118316031389
:10036C00111508000A128A11C2210A128A1170088A
:10037C008312031393000800831603131419C7295F
:10038C00C829C22911081F39031DCD29CE29C2291C
:10039C00080000300A128A11DC210A128A1101307D
:1003AC000A128A11DC210A128A110800F100710864
:1003BC00831203138600091089100915C730F00049
:1003CC00E729F00BE629EA29EB298312031309111B
:1003DC000800F100710883120313860009148910B8
:1003EC000915C730F000FA29F00BF929FD29FE296F
:1003FC008312031309110800F300F201731C072A7E
:10040C00082A0C2A7008F1007108F2070310F00D8D
:10041C000310F30C7308031D142A152A042A7208FE
:10042C0008008316031788018901831603138501BD
:10043C0086018801890183120313850186018801D5
:10044C0089017030831603138F040F14003083124C
:10045C000313A3000130A2008630A100A030A0003D
:10046C000A128A1158230A128A110800F401F501A4
:10047C00701C412A422A482A7208F4070318F50A0C
:10048C007308F50701300310F20DF30DFF3E031D49
:10049C00492A01300310F10CF00CFF3E031D502AC9
:1004AC0070087104031D5B2A5C2A3E2A7508F10052
:1004BC007408F0000800F4007403031D662A672A10
:1004CC00772A72087F3EF3007308F5007508F30075
:1004DC007308F60076080A128A11DC210A128A11B6
:1004EC008C2A02307406031D7C2A7D2A8C2A720801
:1004FC00BF3EF3007308F5007508F3007308F600AF
:10050C0076080A128A11DC210A128A1108000A12D2
:10051C008A11C2210A128A118316031391150A1229
:10052C008A11C2210A128A11831203131308F200D2
:10053C00F3017208F4007308F5000A128A11C22143
:10054C000A128A1170037104031DAD2AAE2AB22A55
:10055C00831603139112B52A8316031391161116E1
:10056C007508F1007408F0000800D92A3C08FF0057
:10057C003B0884000A128A1103200A128A110A12FB
:10058C008A11EF210A128A11013083120313BB075F
:10059C000318BC0A0030BC070C3083120313BD00D7
:1005AC00BD0BD62A0000831203133C08FF003B0846
:1005BC0084000A128A1103200A128A11003A031DC0
:1005CC00E82AE92ABC2A0800F000002B3030202B46
:1005DC003130202B3230202B3330202B3430202B59
:1005EC003530202B3630202B3730202B3830202B39
:1005FC003930202B7008003A0319EC2A013A031900
:10060C00EE2A033A0319F02A013A0319F22A073A9F
:10061C000319F42A013A0319F62A033A0319F82AA2
:10062C00013A0319FA2A0F3A0319FC2A013A031961
:10063C00FE2AEC2A080030300A128A11DC210A1238
:10064C008A110C300A128A11DC210A128A1101302B
:10065C000A128A11DC210A128A1106300A128A1136
:10066C00DC210A128A1180300A128A11DC210A124A
:10067C008A1138300A128A11DC210A128A110C30C4
:10068C000A128A11DC210A128A1106300A128A1106
:10069C00DC210A128A1180300A128A11DC210A121A
:1006AC008A11080028308312031394008316031355
:1006BC009101831203132008A4002108A50022082D
:1006CC00A6002308A70002300310A40DA50DA60D4B
:1006DC00A70DFF3E031D6A2B2708F3002608F20026
:1006EC002508F1002408F0000030F7007A30F600FD
:1006FC001230F5000030F4000A128A11EB230A12B2
:10070C008A117008FF3E831603139300940187151A
:10071C0007160800FD0183120313A71F962B972BB6
:10072C009E2BA609A709A60A0319A70AFD01FD0A13
:10073C00A51FA12BA22BA72BA409A509A40A031959
:10074C00A50A240825040319AC2BAD2BDC2BFC01CA
:10075C00FC0ABB2B01300310A40DA50DFF3E031D9D
:10076C00B12B0130FB007B08FC07A51FBE2BBF2B58
:10077C00B02B25082702031DC52B24082602031CB9
:10078C00C82BC92BCF2B2408A6022508031CA703B2
:10079C00A70201300310A50CA40CFF3E031DD02BA7
:1007AC000130FC02031DDB2BDC2BBF2B7D08031956
:1007BC00E02BE12BE62BA609A709A60A0319A70A29
:1007CC002708A5002608A40008000030FC00003013
:1007DC00FB000030FA000030F90073087204710459
:1007EC0070040319FA2BFB2B482CFD01FD0A0B2C72
:1007FC000130F8000310F00DF10DF20DF30DF80BB4
:10080C00002C0130F8007808FD07F31F0E2C0F2C7C
:10081C00FE2B0130F8000310F90DFA0DFB0DFC0D49
:10082C00F80B112C73087702031D262C7208760224
:10083C00031D262C71087502031D262C70087402EA
:10084C00031C292C2A2C392C7008F4027108031C67
:10085C00710FF5027208031C720FF6027308031C69
:10086C00730FF702791401300310F30CF20CF10C36
:10087C00F00CFF3E031D3A2C0130FD02031D472CEA
:10088C00482C0F2C7C08F3007B08F2007A08F1004E
:10089C007908F000080083120313A101F71F572CED
:1008AC00582C5F2CF609F709F60A0319F70AA1016F
:1008BC00A10AF91F622C632C6C2CF809F909F80AAF
:1008CC000319F90A0130FA007A08A106A201A30162
:1008DC00760877040319732C742CAB2CA001A00A96
:1008EC00822C01300310F60DF70DFF3E031D782C02
:1008FC000130FA007A08A007F71F852C862C772C7C
:10090C0001300310A20DA30DFF3E031D872C7708A9
:10091C007902031D932C76087802031C962C972CD5
:10092C009E2C7608F8027708031CF903F9022214AE
:10093C0001300310F70CF60CFF3E031D9F2C013009
:10094C00A002031DAA2CAB2C862C21080319AF2C5A
:10095C00B02CB52CA209A309A20A0319A30A2308D7
:10096C00F7002208F6000800203083120313A800B9
:10097C002808AB002030A8002808AC000A30A400DE
:10098C000030A5000A30F6000030F7005508A8002A
:10099C00A9012808F8002908F9000A128A11512423
:1009AC000A128A11770883120313A7007608A6008F
:1009BC000A128A1190230A128A1183120313240833
:1009CC000A128A11EA220A128A1183120313AA004C
:1009DC002A08AD000A30A4000030A5005508A80074
:1009EC00A9012808A6002908A7000A128A11902339
:1009FC000A128A118312031324080A128A11EA229A
:100A0C000A128A1183120313AA002A08AE0020309E
:100A1C00A8002808AF000A30A4000030A5006430FC
:100A2C00F6000030F7005408A800A9010310280DA7
:100A3C00F800290DF9000A128A1151240A128A11A0
:100A4C00770883120313A7007608A6000A128A11EE
:100A5C0090230A128A118312031324080A128A1192
:100A6C00EA220A128A1183120313AA002A08B00080
:100A7C002E30A8002808B1000A30A4000030A500D0
:100A8C000A30F6000030F7005408A800A901031042
:100A9C00280DF800290DF9000A128A1151240A12A6
:100AAC008A11770883120313A7007608A6000A128E
:100ABC008A1190230A128A118312031324080A1232
:100ACC008A11EA220A128A1183120313AA002A0835
:100ADC00B2000A30A4000030A5005408A800A901F7
:100AEC002808A6002908A7000A128A1190230A12C6
:100AFC008A118312031324080A128A11EA220A1299
:100B0C008A1183120313AA002A08B3005630A800D6
:100B1C002808B4002030A8002808B5004708A80011
:100B2C002808B6004408A8002808B7004108A80007
:100B3C002808B800DF30A8002808B9004330A80006
:100B4C002808BA002B3008004430831203135602D5
:100B5C00031CB12DB22D542E2330F6000030F700BB
:100B6C005608A400A5012408F0002508F10018304F
:100B7C00F2000030F3000A128A113C220A128A1188
:100B8C007108F9007008F8000A128A1151240A122F
:100B9C008A117608D23E83120313A6002608D300CE
:100BAC006430F6000030F7005308A400A5012408B7
:100BBC00F8002508F9000A128A1151240A128A1128
:100BCC00760883120313A6002608D0000A30F6001C
:100BDC000030F7005008A400A5012408F0002508F7
:100BEC00F1009C30F200FF30F3000A128A113C2213
:100BFC000A128A118312031353087007F800710844
:100C0C000318710AF9000A128A1151240A128A1166
:100C1C00760883120313A6002608CD009C30A4008E
:100C2C002408F00050080A128A1102220A128A11B2
:100C3C0083120313A500F630A6002608F0004D0819
:100C4C000A128A1102220A128A118312031325072F
:100C5C005307A7002708CA0050080A128A11EA2273
:100C6C000A128A1183120313A4002408C7004D082A
:100C7C000A128A11EA220A128A1183120313A4009F
:100C8C002408C4004A080A128A11EA220A128A119C
:100C9C0083120313A4002408C100B82E1330F600ED
:100CAC000030F7005608A400A5012408F000250820
:100CBC00F1000D30F2000030F3000A128A113C22D0
:100CCC000A128A117108F9007008F8000A128A11C8
:100CDC0051240A128A1176082E3C83120313A600A3
:100CEC002608D3002D30A4002408C7000A30F600D3
:100CFC000030F7005308A400A5012408F8002508CB
:100D0C00F9000A128A1151240A128A1176088312E8
:100D1C000313A6002608CD00F630A4002408F0002A
:100D2C004D080A128A1102220A128A118312031325
:100D3C005307A5002508CA004D080A128A11EA2299
:100D4C000A128A1183120313A4002408C4004A084F
:100D5C000A128A11EA220A128A1183120313A400BE
:100D6C002408C10008000A128A1117220A128A11DB
:100D7C000A128A11CF210A128A110A128A1121230E
:100D8C000A128A1190300A128A11DC210A128A1175
:100D9C00033083120313BF009730BE00BE0BD42E5A
:100DAC00BF0BD42E0A128A11AA250A128A110A1212
:100DBC008A11A6210A128A115030F0000030F1007D
:100DCC000A128A11B8210A128A110030F000F100BF
:100DDC000A128A11B8210A128A110A128A11AF2139
:100DEC000A128A11033083120313C0000830BF00AB
:100DFC007630BE00BE0B002FBF0B002FC00B002F98
:100E0C0000000A128A11A6210A128A115130F00030
:100E1C000030F1000A128A11B8210A128A1100302E
:100E2C00F000F1000A128A118D220A128A11700840
:100E3C0083120313BE003E08D5000A128A11AF219B
:100E4C000A128A11033083120313C0000830BF004A
:100E5C007630BE00BE0B302FBF0B302FC00B302FA7
:100E6C0000000A128A11A6210A128A116130F000C0
:100E7C000030F1000A128A11B8210A128A110030CE
:100E8C00F000F1000A128A118D220A128A117008E0
:100E9C0083120313BE003E08D4000A128A11AF213C
:100EAC000A128A11033083120313C0000830BF00EA
:100EBC007630BE00BE0B602FBF0B602FC00B602FB7
:100ECC0000000A128A11A6210A128A118030F00041
:100EDC000030F1000A128A11B8210A128A11F3307B
:100EEC00F0000030F1000A128A11B8210A128A119E
:100EFC000A128A11AF210A128A11023083120313CB
:100F0C00C0000430BF00B930BE00BE0B8B2FBF0B2E
:100F1C008B2FC00B8B2F922F0A128A11A6210A122B
:100F2C008A118130F0000030F1000A128A11B821C8
:100F3C000A128A110030F000F1000A128A118D2277
:100F4C000A128A11700883120313BE003E08D600E1
:100F5C000A128A11AF210A128A1103308312031369
:100F6C00C0000830BF007630BE00BE0BBB2FBF0BDD
:100F7C00BB2FC00BBB2F0000F201F20A01300A128A
:100F8C008A1161220A128A11013083120313BB00E9
:100F9C008030BC000A128A11BB220A128A11F2019B
:100FAC00F20A02300A128A1161220A128A110A12FA
:100FBC008A11BA240A128A1183120313BE00BF01CC
:100FCC003E08BB003F08BC000A128A11BB220A1261
:100FDC008A11D82E0A128A110028831341308400FA
:100FEC0057300A128A119E210A128A1183010A12A1
:040FFC008A11B92E6F
:04400E00D420FF3F7C
:00000001FF
