:060000000A128A110E280D
:10000800FE00030EF2000408F3000A08F4000A12C6
:100018008A111A280A128A111128F601F701F80123
:10002800F901FA0183010A128A1106290B1C1D28FD
:100038001E283B282828F801F80A3A28F701F70A69
:100048003A28F801F7013A28831203130608F0004A
:10005800F1017108003A0319322825287008FD3A81
:1000680003192228033A03191F2825280B10831285
:1000780003138C1D4028412897281412141B452867
:1000880046284A28941F49284A2851281308F0006E
:100098007008FA0014139413141683160313941A91
:1000A80056285728732814195A285B28732883124E
:1000B80003131308F0007008FA008C111416831645
:1000C8000313141C68286928632883120313130870
:1000D8008500A630F000F00B6F2800009428941AD1
:1000E800762877289428141D7A287B289428831248
:1000F80003131308F0007008FA0083160313141092
:1001080076088312031393001416A630F000F00B40
:100118008B280000831603131418932894288E281C
:10012800831203138C1174088A0073088400720EFA
:100138008300FE0E7E0E09007803031DA428A5285F
:10014800B228831203130618AA28AB28B228013054
:10015800F5007508F60776088800F8017703031D8F
:10016800B628B728C228831203138618BC28BD28CE
:10017800C2280130F60276088800F7010F307602AF
:10018800031CC728C828C928F601080083160317C6
:1001980088018901831603138501061486148801D2
:1001A80083120313850186018801831603138113C3
:1001B8001514951450300A128A11EC200A128A116B
:1001C8008B178B150B10831603131614961408003F
:1001D800F500750883160313930036308312031352
:1001E8009400803083160313940001309100871522
:1001F80007168B170B17831203138C11831603131F
:100208008C1508000A128A11CA200A128A110A12C9
:100218008A11A0200A128A110B290A128A110E28A3
:04400E00D620FF3F7A
:00000001FF
