:060000000A128A110E280D
:10000800FE00030EF2000408F3000A08F4000A12C6
:100018008A111A280A128A111128F601F701F80123
:10002800F901FA0183010A128A1100290B1C1D2803
:100038001E283B282828F801F80A3A28F701F70A69
:100048003A28F801F7013A28831203130608F0004A
:10005800F1017108003A0319322825287008FD3A81
:1000680003192228033A03191F2825280B10831285
:1000780003138C1D4028412897281412141B452867
:1000880046284A28941F49284A2851281308F0006E
:100098007008FA0014139413141683160313941A91
:1000A80056285728732814195A285B28732883124E
:1000B80003131308F0007008FA008C111416831645
:1000C8000313141C68286928632883120313130870
:1000D80085000630F000F00B6F2800009428941A71
:1000E800762877289428141D7A287B289428831248
:1000F80003131308F0007008FA0083160313141092
:10010800831203130808930014160630F000F00B4E
:100118008B280000831603131418932894288E281C
:10012800831203138C1174088A0073088400720EFA
:100138008300FE0E7E0E09008316031788018901CD
:100148008316031306148614880189018312031386
:10015800860188018901F60183160313811315149A
:10016800951450300A128A11E6200A128A118B1748
:100178008B150B10831603131614961408007803B6
:10018800031DC728C828D528831203130618CD28AD
:10019800CE28D5280130F5007508F60776088800BE
:1001A800F8017703031DD928DA28E52883120313F9
:1001B8008618DF28E028E5280130F602760888004E
:1001C800F7010800F500750883160313930036300D
:1001D80083120313940080308316031394000130B4
:1001E8009100871507168B170B17831203138C11B1
:1001F800831603138C1508000A128A11A0200A120C
:100208008A110A128A11C3200A128A110F3076063F
:10021800031D0F2910291129F60183120313080859
:0A022800890005290A128A110E2828
:04400E00D620FF3F7A
:00000001FF
