:060000000A128A110C280F
:10000800FE00030EF1000A08F2000A128A111528F0
:100018000A128A110F28F601F70183010A128A11C0
:100028007828831203138C1D1A281B287128141290
:10003800141B1F2820282428941F232824282B2811
:100048001308F0007008F70014139413141683169D
:100058000313941A302831284D28141934283528C8
:100068004D28831203131308F0007008F7008C1151
:10007800141683160313141C422843283D288312A0
:10008800031313088800A630F000F00B492800007D
:100098006E28941A502851286E28141D5428552863
:1000A8006E28831203131308F0007008F7008316F4
:1000B8000313141083120313060893001416A630B2
:1000C800F000F00B652800008316031314186D2840
:1000D8006E286828831203138C1172088A00710E27
:1000E8008300FE0E7E0E09000A128A1191200A1260
:1000F8008A118312031386090630F5001330F400C1
:10010800AD30F300F30B8628F40B8628F50B862810
:100118008D287D280A128A110C2883160317880156
:10012800890183160313860188018312031386014C
:040138008801080032
:04400E00D620FF3F7A
:00000001FF
