:060000000A128A110C280F
:10000800FE00030EF2000A08F3000A128A111828EB
:100018000A128A110F28F701F801F901FA01FB0108
:1000280083010A128A11C928831203130C1F1D2881
:100038001E282F281E08F0007008F9000330F10070
:100048009730F000F00B2628F10B26282B28831276
:1000580003139F140C138C1D32283328892814127B
:10006800141B372838283C28941F3B283C28432851
:100078001308F0007008FB00141394131416831669
:100088000313941A48284928652814194C284D2820
:100098006528831203131308F0007008FB008C1105
:1000A800141683160313141C5A285B285528831228
:1000B800031313088500A630F000F00B6128000038
:1000C8008628941A682869288628141D6C286D28A3
:1000D8008628831203131308F0007008FB008316A8
:1000E8000313141079088312031393001416A6300F
:1000F800F000F00B7D2800008316031314188528E0
:1001080086288028831203138C1173088A00720EC4
:100118008300FE0E7E0E090083160317081489015A
:1001280083160313051488018312031385018801BC
:100138000A128A11E0200A128A1160300A128A1102
:10014800AF200A128A118B17831603130C17831218
:1001580003130C130800F4007408831603139300A8
:1001680036308312031394008030831603139400EF
:1001780001309100871507168B170B17831203138D
:100188008C11831603138C1508000A128A1190200B
:100198000A128A110330F6009730F500F50BD228C1
:1001A800F60BD228D728831203139F1479088800E6
:1001B800DA280A128A110C28831603139F131F12B8
:1001C8009F12831203131F083F3940389F00C33022
:1001D8009F051030F400F40BEF280000831203137E
:0401E8001F140800D8
:04400E00D620FF3F7A
:00000001FF
